{"abi":[{"type":"constructor","inputs":[{"name":"governor_","type":"address","internalType":"address"}],"stateMutability":"nonpayable"},{"type":"function","name":"deactivate","inputs":[],"outputs":[],"stateMutability":"nonpayable"},{"type":"function","name":"delegateList","inputs":[{"name":"","type":"uint256","internalType":"uint256"}],"outputs":[{"name":"","type":"address","internalType":"address"}],"stateMutability":"view"},{"type":"function","name":"delegates","inputs":[{"name":"","type":"address","internalType":"address"}],"outputs":[{"name":"name","type":"string","internalType":"string"},{"name":"description","type":"string","internalType":"string"},{"name":"votingPhilosophy","type":"string","internalType":"string"},{"name":"proposalsOpposed","type":"uint256","internalType":"uint256"},{"name":"proposalsReworked","type":"uint256","internalType":"uint256"},{"name":"proposalsSupported","type":"uint256","internalType":"uint256"},{"name":"isActive","type":"bool","internalType":"bool"}],"stateMutability":"view"},{"type":"function","name":"getActiveDelegates","inputs":[],"outputs":[{"name":"","type":"address[]","internalType":"address[]"}],"stateMutability":"view"},{"type":"function","name":"getDelegateCount","inputs":[],"outputs":[{"name":"","type":"uint256","internalType":"uint256"}],"stateMutability":"view"},{"type":"function","name":"getDelegatesPaginated","inputs":[{"name":"offset","type":"uint256","internalType":"uint256"},{"name":"limit","type":"uint256","internalType":"uint256"}],"outputs":[{"name":"","type":"address[]","internalType":"address[]"}],"stateMutability":"view"},{"type":"function","name":"getProfile","inputs":[{"name":"delegate","type":"address","internalType":"address"}],"outputs":[{"name":"name","type":"string","internalType":"string"},{"name":"description","type":"string","internalType":"string"},{"name":"votingPhilosophy","type":"string","internalType":"string"},{"name":"proposalsOpposed","type":"uint256","internalType":"uint256"},{"name":"proposalsReworked","type":"uint256","internalType":"uint256"},{"name":"proposalsSupported","type":"uint256","internalType":"uint256"},{"name":"isActive","type":"bool","internalType":"bool"}],"stateMutability":"view"},{"type":"function","name":"governor","inputs":[],"outputs":[{"name":"","type":"address","internalType":"contract ICOGGovernor"}],"stateMutability":"view"},{"type":"function","name":"isRegistered","inputs":[{"name":"","type":"address","internalType":"address"}],"outputs":[{"name":"","type":"bool","internalType":"bool"}],"stateMutability":"view"},{"type":"function","name":"reactivate","inputs":[],"outputs":[],"stateMutability":"nonpayable"},{"type":"function","name":"recordVote","inputs":[{"name":"delegate","type":"address","internalType":"address"},{"name":"proposalId","type":"uint256","internalType":"uint256"},{"name":"action","type":"uint8","internalType":"enum ICOGGovernor.DissentAction"}],"outputs":[],"stateMutability":"nonpayable"},{"type":"function","name":"register","inputs":[{"name":"name","type":"string","internalType":"string"},{"name":"description","type":"string","internalType":"string"},{"name":"votingPhilosophy","type":"string","internalType":"string"}],"outputs":[],"stateMutability":"nonpayable"},{"type":"function","name":"updateProfile","inputs":[{"name":"name","type":"string","internalType":"string"},{"name":"description","type":"string","internalType":"string"},{"name":"votingPhilosophy","type":"string","internalType":"string"}],"outputs":[],"stateMutability":"nonpayable"},{"type":"event","name":"DelegateDeactivated","inputs":[{"name":"delegate","type":"address","indexed":true,"internalType":"address"}],"anonymous":false},{"type":"event","name":"DelegateRegistered","inputs":[{"name":"delegate","type":"address","indexed":true,"internalType":"address"},{"name":"name","type":"string","indexed":false,"internalType":"string"}],"anonymous":false},{"type":"event","name":"DelegateUpdated","inputs":[{"name":"delegate","type":"address","indexed":true,"internalType":"address"},{"name":"name","type":"string","indexed":false,"internalType":"string"}],"anonymous":false},{"type":"event","name":"DelegateVotingRecord","inputs":[{"name":"delegate","type":"address","indexed":true,"internalType":"address"},{"name":"proposalId","type":"uint256","indexed":true,"internalType":"uint256"},{"name":"action","type":"uint8","indexed":false,"internalType":"enum ICOGGovernor.DissentAction"}],"anonymous":false},{"type":"error","name":"AlreadyRegistered","inputs":[]},{"type":"error","name":"EmptyName","inputs":[]},{"type":"error","name":"NotRegistered","inputs":[]}],"bytecode":{"object":"0x608060405234801561001057600080fd5b5060405161141938038061141983398101604081905261002f91610054565b600380546001600160a01b0319166001600160a01b0392909216919091179055610084565b60006020828403121561006657600080fd5b81516001600160a01b038116811461007d57600080fd5b9392505050565b611386806100936000396000f3fe608060405234801561001057600080fd5b50600436106100cf5760003560e01c806351b42b001161008c5780639b98bb38116100665780639b98bb38146101a6578063ad9a9ea5146101b9578063c3c5a547146101cc578063d18611d6146101ff57600080fd5b806351b42b0014610176578063587cde1e1461017e57806396628a1c1461019157600080fd5b8063071836e7146100d45780630c340a24146100ea5780630f53a470146101155780631105a5eb1461013b5780632f31cb3d146101505780634cd08d0314610163575b600080fd5b6001546040519081526020015b60405180910390f35b6003546100fd906001600160a01b031681565b6040516001600160a01b0390911681526020016100e1565b610128610123366004610ddf565b610207565b6040516100e19796959493929190610e47565b61014e610149366004610ef2565b610425565b005b61014e61015e366004610f8c565b6104ff565b61014e610171366004610ef2565b610615565b61014e610853565b61012861018c366004610ddf565b6108c5565b610199610a9b565b6040516100e19190610fd0565b6101996101b436600461101d565b610c31565b6100fd6101c736600461103f565b610d4a565b6101ef6101da366004610ddf565b60026020526000908152604090205460ff1681565b60405190151581526020016100e1565b61014e610d74565b606080606060008060008060008060008a6001600160a01b03166001600160a01b0316815260200190815260200160002090508060000181600101826002018360030154846004015485600501548660060160009054906101000a900460ff1686805461027390611058565b80601f016020809104026020016040519081016040528092919081815260200182805461029f90611058565b80156102ec5780601f106102c1576101008083540402835291602001916102ec565b820191906000526020600020905b8154815290600101906020018083116102cf57829003601f168201915b505050505096508580546102ff90611058565b80601f016020809104026020016040519081016040528092919081815260200182805461032b90611058565b80156103785780601f1061034d57610100808354040283529160200191610378565b820191906000526020600020905b81548152906001019060200180831161035b57829003601f168201915b5050505050955084805461038b90611058565b80601f01602080910402602001604051908101604052809291908181526020018280546103b790611058565b80156104045780601f106103d957610100808354040283529160200191610404565b820191906000526020600020905b8154815290600101906020018083116103e757829003601f168201915b50505050509450975097509750975097509750975050919395979092949650565b3360009081526002602052604090205460ff166104555760405163aba4733960e01b815260040160405180910390fd5b600085900361047757604051632ef1310560e01b815260040160405180910390fd5b336000908152602081905260409020806104928789836110f7565b50600181016104a28587836110f7565b50600281016104b28385836110f7565b50336001600160a01b03167fd2597f423e1637bfdc7f666482fd47f9864403bc8532f972f0787831bed7a50f88886040516104ee9291906111b8565b60405180910390a250505050505050565b6001600160a01b03831660009081526002602052604090205460ff1661052457505050565b6001600160a01b03831660009081526020819052604090206001826004811115610550576105506111e7565b036105715760038101805490600061056783611213565b91905055506105cd565b6002826004811115610585576105856111e7565b0361059c5760048101805490600061056783611213565b60008260048111156105b0576105b06111e7565b036105cd576005810180549060006105c783611213565b91905055505b82846001600160a01b03167f6872847352cc19d6667abba6f684663bc61f28c8b0492c971b77ee08f68c185784604051610607919061122c565b60405180910390a350505050565b600085900361063757604051632ef1310560e01b815260040160405180910390fd5b3360009081526002602052604090205460ff161561066857604051630ea075bf60e21b815260040160405180910390fd5b6040518060e0016040528087878080601f016020809104026020016040519081016040528093929190818152602001838380828437600092019190915250505090825250604080516020601f880181900481028201810190925286815291810191908790879081908401838280828437600092019190915250505090825250604080516020601f86018190048102820181019092528481529181019190859085908190840183828082843760009201829052509385525050506020808301829052604080840183905260608401839052600160809094019390935233825281905220815181906107589082611254565b506020820151600182019061076d9082611254565b50604082015160028201906107829082611254565b50606082015160038201556080820151600482015560a0820151600582015560c0909101516006909101805491151560ff199283161790556001805480820182557fb10e2d527612073b26eecdfd717e6a320cf44b4afac2b0732d9fcbe2b7fa0cf60180546001600160a01b03191633908117909155600081815260026020526040908190208054909416909217909255517ff3326e06724cb2af7774f08f889b2383e540955bb6ed3b00ccb9dfe14622881d9061084390899089906111b8565b60405180910390a2505050505050565b3360009081526002602052604090205460ff166108835760405163aba4733960e01b815260040160405180910390fd5b33600081815260208190526040808220600601805460ff19169055517f0e7b688930ca6441ef0e40f6646f9ac3498c202ce98fac01fd072c90e05c01469190a2565b6000602081905290815260409020805481906108e090611058565b80601f016020809104026020016040519081016040528092919081815260200182805461090c90611058565b80156109595780601f1061092e57610100808354040283529160200191610959565b820191906000526020600020905b81548152906001019060200180831161093c57829003601f168201915b50505050509080600101805461096e90611058565b80601f016020809104026020016040519081016040528092919081815260200182805461099a90611058565b80156109e75780601f106109bc576101008083540402835291602001916109e7565b820191906000526020600020905b8154815290600101906020018083116109ca57829003601f168201915b5050505050908060020180546109fc90611058565b80601f0160208091040260200160405190810160405280929190818152602001828054610a2890611058565b8015610a755780601f10610a4a57610100808354040283529160200191610a75565b820191906000526020600020905b815481529060010190602001808311610a5857829003601f168201915b505050506003830154600484015460058501546006909501549394919390925060ff1687565b60606000805b600154811015610b115760008060018381548110610ac157610ac1611314565b60009182526020808320909101546001600160a01b0316835282019290925260400190206006015460ff1615610aff5781610afb81611213565b9250505b80610b0981611213565b915050610aa1565b5060008167ffffffffffffffff811115610b2d57610b2d611092565b604051908082528060200260200182016040528015610b56578160200160208202803683370190505b5090506000805b600154811015610c285760008060018381548110610b7d57610b7d611314565b60009182526020808320909101546001600160a01b0316835282019290925260400190206006015460ff1615610c165760018181548110610bc057610bc0611314565b9060005260206000200160009054906101000a90046001600160a01b0316838381518110610bf057610bf0611314565b6001600160a01b039092166020928302919091019091015281610c1281611213565b9250505b80610c2081611213565b915050610b5d565b50909392505050565b600154606090808410610c54575050604080516000815260208101909152610d44565b6000610c60858361132a565b90506000848210610c715784610c73565b815b905060008167ffffffffffffffff811115610c9057610c90611092565b604051908082528060200260200182016040528015610cb9578160200160208202803683370190505b50905060005b82811015610d3d576001610cd3828a61133d565b81548110610ce357610ce3611314565b9060005260206000200160009054906101000a90046001600160a01b0316828281518110610d1357610d13611314565b6001600160a01b039092166020928302919091019091015280610d3581611213565b915050610cbf565b5093505050505b92915050565b60018181548110610d5a57600080fd5b6000918252602090912001546001600160a01b0316905081565b3360009081526002602052604090205460ff16610da45760405163aba4733960e01b815260040160405180910390fd5b336000908152602081905260409020600601805460ff19166001179055565b80356001600160a01b0381168114610dda57600080fd5b919050565b600060208284031215610df157600080fd5b610dfa82610dc3565b9392505050565b6000815180845260005b81811015610e2757602081850181015186830182015201610e0b565b506000602082860101526020601f19601f83011685010191505092915050565b60e081526000610e5a60e083018a610e01565b8281036020840152610e6c818a610e01565b90508281036040840152610e808189610e01565b9150508560608301528460808301528360a083015282151560c083015298975050505050505050565b60008083601f840112610ebb57600080fd5b50813567ffffffffffffffff811115610ed357600080fd5b602083019150836020828501011115610eeb57600080fd5b9250929050565b60008060008060008060608789031215610f0b57600080fd5b863567ffffffffffffffff80821115610f2357600080fd5b610f2f8a838b01610ea9565b90985096506020890135915080821115610f4857600080fd5b610f548a838b01610ea9565b90965094506040890135915080821115610f6d57600080fd5b50610f7a89828a01610ea9565b979a9699509497509295939492505050565b600080600060608486031215610fa157600080fd5b610faa84610dc3565b925060208401359150604084013560058110610fc557600080fd5b809150509250925092565b6020808252825182820181905260009190848201906040850190845b818110156110115783516001600160a01b031683529284019291840191600101610fec565b50909695505050505050565b6000806040838503121561103057600080fd5b50508035926020909101359150565b60006020828403121561105157600080fd5b5035919050565b600181811c9082168061106c57607f821691505b60208210810361108c57634e487b7160e01b600052602260045260246000fd5b50919050565b634e487b7160e01b600052604160045260246000fd5b601f8211156110f257600081815260208120601f850160051c810160208610156110cf5750805b601f850160051c820191505b818110156110ee578281556001016110db565b5050505b505050565b67ffffffffffffffff83111561110f5761110f611092565b6111238361111d8354611058565b836110a8565b6000601f841160018114611157576000851561113f5750838201355b600019600387901b1c1916600186901b1783556111b1565b600083815260209020601f19861690835b828110156111885786850135825560209485019460019092019101611168565b50868210156111a55760001960f88860031b161c19848701351681555b505060018560011b0183555b5050505050565b60208152816020820152818360408301376000818301604090810191909152601f909201601f19160101919050565b634e487b7160e01b600052602160045260246000fd5b634e487b7160e01b600052601160045260246000fd5b600060018201611225576112256111fd565b5060010190565b602081016005831061124e57634e487b7160e01b600052602160045260246000fd5b91905290565b815167ffffffffffffffff81111561126e5761126e611092565b6112828161127c8454611058565b846110a8565b602080601f8311600181146112b7576000841561129f5750858301515b600019600386901b1c1916600185901b1785556110ee565b600085815260208120601f198616915b828110156112e6578886015182559484019460019091019084016112c7565b50858210156113045787850151600019600388901b60f8161c191681555b5050505050600190811b01905550565b634e487b7160e01b600052603260045260246000fd5b81810381811115610d4457610d446111fd565b80820180821115610d4457610d446111fd56fea264697066735822122045367754f4fd66fef45143b0e379ef271c9ad42ac376c4a678b8d79de30d3b9064736f6c63430008140033","linkReferences":{}},"methodIdentifiers":{"deactivate()":"51b42b00","delegateList(uint256)":"ad9a9ea5","delegates(address)":"587cde1e","getActiveDelegates()":"96628a1c","getDelegateCount()":"071836e7","getDelegatesPaginated(uint256,uint256)":"9b98bb38","getProfile(address)":"0f53a470","governor()":"0c340a24","isRegistered(address)":"c3c5a547","reactivate()":"d18611d6","recordVote(address,uint256,uint8)":"2f31cb3d","register(string,string,string)":"4cd08d03","updateProfile(string,string,string)":"1105a5eb"},"id":14}