{"abi":[{"type":"constructor","inputs":[{"name":"name_","type":"string","internalType":"string"},{"name":"symbol_","type":"string","internalType":"string"},{"name":"decimals_","type":"uint8","internalType":"uint8"}],"stateMutability":"nonpayable"},{"type":"function","name":"allowance","inputs":[{"name":"owner","type":"address","internalType":"address"},{"name":"spender","type":"address","internalType":"address"}],"outputs":[{"name":"","type":"uint256","internalType":"uint256"}],"stateMutability":"view"},{"type":"function","name":"approve","inputs":[{"name":"spender","type":"address","internalType":"address"},{"name":"value","type":"uint256","internalType":"uint256"}],"outputs":[{"name":"","type":"bool","internalType":"bool"}],"stateMutability":"nonpayable"},{"type":"function","name":"balanceOf","inputs":[{"name":"account","type":"address","internalType":"address"}],"outputs":[{"name":"","type":"uint256","internalType":"uint256"}],"stateMutability":"view"},{"type":"function","name":"burn","inputs":[{"name":"from","type":"address","internalType":"address"},{"name":"amount","type":"uint256","internalType":"uint256"}],"outputs":[],"stateMutability":"nonpayable"},{"type":"function","name":"decimals","inputs":[],"outputs":[{"name":"","type":"uint8","internalType":"uint8"}],"stateMutability":"view"},{"type":"function","name":"mint","inputs":[{"name":"to","type":"address","internalType":"address"},{"name":"amount","type":"uint256","internalType":"uint256"}],"outputs":[],"stateMutability":"nonpayable"},{"type":"function","name":"name","inputs":[],"outputs":[{"name":"","type":"string","internalType":"string"}],"stateMutability":"view"},{"type":"function","name":"symbol","inputs":[],"outputs":[{"name":"","type":"string","internalType":"string"}],"stateMutability":"view"},{"type":"function","name":"totalSupply","inputs":[],"outputs":[{"name":"","type":"uint256","internalType":"uint256"}],"stateMutability":"view"},{"type":"function","name":"transfer","inputs":[{"name":"to","type":"address","internalType":"address"},{"name":"value","type":"uint256","internalType":"uint256"}],"outputs":[{"name":"","type":"bool","internalType":"bool"}],"stateMutability":"nonpayable"},{"type":"function","name":"transferFrom","inputs":[{"name":"from","type":"address","internalType":"address"},{"name":"to","type":"address","internalType":"address"},{"name":"value","type":"uint256","internalType":"uint256"}],"outputs":[{"name":"","type":"bool","internalType":"bool"}],"stateMutability":"nonpayable"},{"type":"event","name":"Approval","inputs":[{"name":"owner","type":"address","indexed":true,"internalType":"address"},{"name":"spender","type":"address","indexed":true,"internalType":"address"},{"name":"value","type":"uint256","indexed":false,"internalType":"uint256"}],"anonymous":false},{"type":"event","name":"Transfer","inputs":[{"name":"from","type":"address","indexed":true,"internalType":"address"},{"name":"to","type":"address","indexed":true,"internalType":"address"},{"name":"value","type":"uint256","indexed":false,"internalType":"uint256"}],"anonymous":false},{"type":"error","name":"ERC20InsufficientAllowance","inputs":[{"name":"spender","type":"address","internalType":"address"},{"name":"allowance","type":"uint256","internalType":"uint256"},{"name":"needed","type":"uint256","internalType":"uint256"}]},{"type":"error","name":"ERC20InsufficientBalance","inputs":[{"name":"sender","type":"address","internalType":"address"},{"name":"balance","type":"uint256","internalType":"uint256"},{"name":"needed","type":"uint256","internalType":"uint256"}]},{"type":"error","name":"ERC20InvalidApprover","inputs":[{"name":"approver","type":"address","internalType":"address"}]},{"type":"error","name":"ERC20InvalidReceiver","inputs":[{"name":"receiver","type":"address","internalType":"address"}]},{"type":"error","name":"ERC20InvalidSender","inputs":[{"name":"sender","type":"address","internalType":"address"}]},{"type":"error","name":"ERC20InvalidSpender","inputs":[{"name":"spender","type":"address","internalType":"address"}]}],"bytecode":{"object":"0x60806040523480156200001157600080fd5b5060405162000b1238038062000b12833981016040819052620000349162000139565b828260036200004483826200024d565b5060046200005382826200024d565b50506005805460ff191660ff93909316929092179091555062000319915050565b634e487b7160e01b600052604160045260246000fd5b600082601f8301126200009c57600080fd5b81516001600160401b0380821115620000b957620000b962000074565b604051601f8301601f19908116603f01168101908282118183101715620000e457620000e462000074565b816040528381526020925086838588010111156200010157600080fd5b600091505b8382101562000125578582018301518183018401529082019062000106565b600093810190920192909252949350505050565b6000806000606084860312156200014f57600080fd5b83516001600160401b03808211156200016757600080fd5b62000175878388016200008a565b945060208601519150808211156200018c57600080fd5b506200019b868287016200008a565b925050604084015160ff81168114620001b357600080fd5b809150509250925092565b600181811c90821680620001d357607f821691505b602082108103620001f457634e487b7160e01b600052602260045260246000fd5b50919050565b601f8211156200024857600081815260208120601f850160051c81016020861015620002235750805b601f850160051c820191505b8181101562000244578281556001016200022f565b5050505b505050565b81516001600160401b0381111562000269576200026962000074565b62000281816200027a8454620001be565b84620001fa565b602080601f831160018114620002b95760008415620002a05750858301515b600019600386901b1c1916600185901b17855562000244565b600085815260208120601f198616915b82811015620002ea57888601518255948401946001909101908401620002c9565b5085821015620003095787850151600019600388901b60f8161c191681555b5050505050600190811b01905550565b6107e980620003296000396000f3fe608060405234801561001057600080fd5b50600436106100a95760003560e01c806340c10f191161007157806340c10f191461012957806370a082311461013e57806395d89b41146101675780639dc29fac1461016f578063a9059cbb14610182578063dd62ed3e1461019557600080fd5b806306fdde03146100ae578063095ea7b3146100cc57806318160ddd146100ef57806323b872dd14610101578063313ce56714610114575b600080fd5b6100b66101ce565b6040516100c39190610633565b60405180910390f35b6100df6100da36600461069d565b610260565b60405190151581526020016100c3565b6002545b6040519081526020016100c3565b6100df61010f3660046106c7565b61027a565b60055460405160ff90911681526020016100c3565b61013c61013736600461069d565b61029e565b005b6100f361014c366004610703565b6001600160a01b031660009081526020819052604090205490565b6100b66102ac565b61013c61017d36600461069d565b6102bb565b6100df61019036600461069d565b6102c5565b6100f36101a3366004610725565b6001600160a01b03918216600090815260016020908152604080832093909416825291909152205490565b6060600380546101dd90610758565b80601f016020809104026020016040519081016040528092919081815260200182805461020990610758565b80156102565780601f1061022b57610100808354040283529160200191610256565b820191906000526020600020905b81548152906001019060200180831161023957829003601f168201915b5050505050905090565b60003361026e8185856102d3565b60019150505b92915050565b6000336102888582856102e5565b610293858585610369565b506001949350505050565b6102a882826103c8565b5050565b6060600480546101dd90610758565b6102a882826103fe565b60003361026e818585610369565b6102e08383836001610434565b505050565b6001600160a01b03838116600090815260016020908152604080832093861683529290522054600019811015610363578181101561035457604051637dc7a0d960e11b81526001600160a01b038416600482015260248101829052604481018390526064015b60405180910390fd5b61036384848484036000610434565b50505050565b6001600160a01b03831661039357604051634b637e8f60e11b81526000600482015260240161034b565b6001600160a01b0382166103bd5760405163ec442f0560e01b81526000600482015260240161034b565b6102e0838383610509565b6001600160a01b0382166103f25760405163ec442f0560e01b81526000600482015260240161034b565b6102a860008383610509565b6001600160a01b03821661042857604051634b637e8f60e11b81526000600482015260240161034b565b6102a882600083610509565b6001600160a01b03841661045e5760405163e602df0560e01b81526000600482015260240161034b565b6001600160a01b03831661048857604051634a1406b160e11b81526000600482015260240161034b565b6001600160a01b038085166000908152600160209081526040808320938716835292905220829055801561036357826001600160a01b0316846001600160a01b03167f8c5be1e5ebec7d5bd14f71427d1e84f3dd0314c0f7b2291e5b200ac8c7c3b925846040516104fb91815260200190565b60405180910390a350505050565b6001600160a01b0383166105345780600260008282546105299190610792565b909155506105a69050565b6001600160a01b038316600090815260208190526040902054818110156105875760405163391434e360e21b81526001600160a01b0385166004820152602481018290526044810183905260640161034b565b6001600160a01b03841660009081526020819052604090209082900390555b6001600160a01b0382166105c2576002805482900390556105e1565b6001600160a01b03821660009081526020819052604090208054820190555b816001600160a01b0316836001600160a01b03167fddf252ad1be2c89b69c2b068fc378daa952ba7f163c4a11628f55a4df523b3ef8360405161062691815260200190565b60405180910390a3505050565b600060208083528351808285015260005b8181101561066057858101830151858201604001528201610644565b506000604082860101526040601f19601f8301168501019250505092915050565b80356001600160a01b038116811461069857600080fd5b919050565b600080604083850312156106b057600080fd5b6106b983610681565b946020939093013593505050565b6000806000606084860312156106dc57600080fd5b6106e584610681565b92506106f360208501610681565b9150604084013590509250925092565b60006020828403121561071557600080fd5b61071e82610681565b9392505050565b6000806040838503121561073857600080fd5b61074183610681565b915061074f60208401610681565b90509250929050565b600181811c9082168061076c57607f821691505b60208210810361078c57634e487b7160e01b600052602260045260246000fd5b50919050565b8082018082111561027457634e487b7160e01b600052601160045260246000fdfea264697066735822122060ec4b5b8768dddfd10104bd2410ae46f9f4c1673294074b9d1e03def839321364736f6c63430008140033","linkReferences":{}},"methodIdentifiers":{"allowance(address,address)":"dd62ed3e","approve(address,uint256)":"095ea7b3","balanceOf(address)":"70a08231","burn(address,uint256)":"9dc29fac","decimals()":"313ce567","mint(address,uint256)":"40c10f19","name()":"06fdde03","symbol()":"95d89b41","totalSupply()":"18160ddd","transfer(address,uint256)":"a9059cbb","transferFrom(address,address,uint256)":"23b872dd"},"id":44}