{"abi":[{"type":"constructor","inputs":[{"name":"name_","type":"string","internalType":"string"},{"name":"symbol_","type":"string","internalType":"string"}],"stateMutability":"nonpayable"},{"type":"function","name":"allowance","inputs":[{"name":"owner","type":"address","internalType":"address"},{"name":"spender","type":"address","internalType":"address"}],"outputs":[{"name":"","type":"uint256","internalType":"uint256"}],"stateMutability":"view"},{"type":"function","name":"approve","inputs":[{"name":"spender","type":"address","internalType":"address"},{"name":"value","type":"uint256","internalType":"uint256"}],"outputs":[{"name":"","type":"bool","internalType":"bool"}],"stateMutability":"nonpayable"},{"type":"function","name":"balanceOf","inputs":[{"name":"account","type":"address","internalType":"address"}],"outputs":[{"name":"","type":"uint256","internalType":"uint256"}],"stateMutability":"view"},{"type":"function","name":"burn","inputs":[{"name":"value","type":"uint256","internalType":"uint256"}],"outputs":[],"stateMutability":"nonpayable"},{"type":"function","name":"burnFrom","inputs":[{"name":"account","type":"address","internalType":"address"},{"name":"amount","type":"uint256","internalType":"uint256"}],"outputs":[],"stateMutability":"nonpayable"},{"type":"function","name":"decimals","inputs":[],"outputs":[{"name":"","type":"uint8","internalType":"uint8"}],"stateMutability":"view"},{"type":"function","name":"delegate","inputs":[{"name":"delegatee","type":"address","internalType":"address"}],"outputs":[],"stateMutability":"nonpayable"},{"type":"function","name":"delegatedPower","inputs":[{"name":"","type":"address","internalType":"address"}],"outputs":[{"name":"","type":"uint256","internalType":"uint256"}],"stateMutability":"view"},{"type":"function","name":"delegates","inputs":[{"name":"","type":"address","internalType":"address"}],"outputs":[{"name":"","type":"address","internalType":"address"}],"stateMutability":"view"},{"type":"function","name":"getDelegatedPower","inputs":[{"name":"delegate_","type":"address","internalType":"address"}],"outputs":[{"name":"","type":"uint256","internalType":"uint256"}],"stateMutability":"view"},{"type":"function","name":"getDelegators","inputs":[{"name":"delegate_","type":"address","internalType":"address"}],"outputs":[{"name":"","type":"address[]","internalType":"address[]"}],"stateMutability":"view"},{"type":"function","name":"getEffectiveVotingPower","inputs":[{"name":"account","type":"address","internalType":"address"}],"outputs":[{"name":"","type":"uint256","internalType":"uint256"}],"stateMutability":"view"},{"type":"function","name":"isDelegatorOf","inputs":[{"name":"delegate_","type":"address","internalType":"address"},{"name":"delegator","type":"address","internalType":"address"}],"outputs":[{"name":"","type":"bool","internalType":"bool"}],"stateMutability":"view"},{"type":"function","name":"mint","inputs":[{"name":"to","type":"address","internalType":"address"},{"name":"amount","type":"uint256","internalType":"uint256"}],"outputs":[],"stateMutability":"nonpayable"},{"type":"function","name":"name","inputs":[],"outputs":[{"name":"","type":"string","internalType":"string"}],"stateMutability":"view"},{"type":"function","name":"owner","inputs":[],"outputs":[{"name":"","type":"address","internalType":"address"}],"stateMutability":"view"},{"type":"function","name":"renounceOwnership","inputs":[],"outputs":[],"stateMutability":"nonpayable"},{"type":"function","name":"setTreasury","inputs":[{"name":"treasury_","type":"address","internalType":"address"}],"outputs":[],"stateMutability":"nonpayable"},{"type":"function","name":"symbol","inputs":[],"outputs":[{"name":"","type":"string","internalType":"string"}],"stateMutability":"view"},{"type":"function","name":"totalSupply","inputs":[],"outputs":[{"name":"","type":"uint256","internalType":"uint256"}],"stateMutability":"view"},{"type":"function","name":"transfer","inputs":[{"name":"to","type":"address","internalType":"address"},{"name":"value","type":"uint256","internalType":"uint256"}],"outputs":[{"name":"","type":"bool","internalType":"bool"}],"stateMutability":"nonpayable"},{"type":"function","name":"transferFrom","inputs":[{"name":"from","type":"address","internalType":"address"},{"name":"to","type":"address","internalType":"address"},{"name":"value","type":"uint256","internalType":"uint256"}],"outputs":[{"name":"","type":"bool","internalType":"bool"}],"stateMutability":"nonpayable"},{"type":"function","name":"transferOwnership","inputs":[{"name":"newOwner","type":"address","internalType":"address"}],"outputs":[],"stateMutability":"nonpayable"},{"type":"function","name":"treasury","inputs":[],"outputs":[{"name":"","type":"address","internalType":"address"}],"stateMutability":"view"},{"type":"function","name":"undelegate","inputs":[],"outputs":[],"stateMutability":"nonpayable"},{"type":"event","name":"Approval","inputs":[{"name":"owner","type":"address","indexed":true,"internalType":"address"},{"name":"spender","type":"address","indexed":true,"internalType":"address"},{"name":"value","type":"uint256","indexed":false,"internalType":"uint256"}],"anonymous":false},{"type":"event","name":"DelegateChanged","inputs":[{"name":"delegator","type":"address","indexed":true,"internalType":"address"},{"name":"fromDelegate","type":"address","indexed":true,"internalType":"address"},{"name":"toDelegate","type":"address","indexed":true,"internalType":"address"}],"anonymous":false},{"type":"event","name":"OwnershipTransferred","inputs":[{"name":"previousOwner","type":"address","indexed":true,"internalType":"address"},{"name":"newOwner","type":"address","indexed":true,"internalType":"address"}],"anonymous":false},{"type":"event","name":"Redemption","inputs":[{"name":"holder","type":"address","indexed":true,"internalType":"address"},{"name":"tokens","type":"uint256","indexed":false,"internalType":"uint256"},{"name":"stablecoinsReceived","type":"uint256","indexed":false,"internalType":"uint256"},{"name":"isPartial","type":"bool","indexed":false,"internalType":"bool"}],"anonymous":false},{"type":"event","name":"Transfer","inputs":[{"name":"from","type":"address","indexed":true,"internalType":"address"},{"name":"to","type":"address","indexed":true,"internalType":"address"},{"name":"value","type":"uint256","indexed":false,"internalType":"uint256"}],"anonymous":false},{"type":"error","name":"AlreadyDelegatedToThisAddress","inputs":[]},{"type":"error","name":"ERC20InsufficientAllowance","inputs":[{"name":"spender","type":"address","internalType":"address"},{"name":"allowance","type":"uint256","internalType":"uint256"},{"name":"needed","type":"uint256","internalType":"uint256"}]},{"type":"error","name":"ERC20InsufficientBalance","inputs":[{"name":"sender","type":"address","internalType":"address"},{"name":"balance","type":"uint256","internalType":"uint256"},{"name":"needed","type":"uint256","internalType":"uint256"}]},{"type":"error","name":"ERC20InvalidApprover","inputs":[{"name":"approver","type":"address","internalType":"address"}]},{"type":"error","name":"ERC20InvalidReceiver","inputs":[{"name":"receiver","type":"address","internalType":"address"}]},{"type":"error","name":"ERC20InvalidSender","inputs":[{"name":"sender","type":"address","internalType":"address"}]},{"type":"error","name":"ERC20InvalidSpender","inputs":[{"name":"spender","type":"address","internalType":"address"}]},{"type":"error","name":"NotDelegated","inputs":[]},{"type":"error","name":"OnlyTreasury","inputs":[]},{"type":"error","name":"OwnableInvalidOwner","inputs":[{"name":"owner","type":"address","internalType":"address"}]},{"type":"error","name":"OwnableUnauthorizedAccount","inputs":[{"name":"account","type":"address","internalType":"address"}]},{"type":"error","name":"SelfDelegationNotAllowed","inputs":[]},{"type":"error","name":"TreasuryAlreadySet","inputs":[]}],"bytecode":{"object":"0x60806040523480156200001157600080fd5b5060405162001620380380620016208339810160408190526200003491620001b1565b3382826003620000458382620002aa565b506004620000548282620002aa565b5050506001600160a01b0381166200008657604051631e4fbdf760e01b81526000600482015260240160405180910390fd5b62000091816200009a565b50505062000376565b600580546001600160a01b038381166001600160a01b0319831681179093556040519116919082907f8be0079c531659141344cd1fd0a4f28419497f9722a3daafe3b4186f6b6457e090600090a35050565b634e487b7160e01b600052604160045260246000fd5b600082601f8301126200011457600080fd5b81516001600160401b0380821115620001315762000131620000ec565b604051601f8301601f19908116603f011681019082821181831017156200015c576200015c620000ec565b816040528381526020925086838588010111156200017957600080fd5b600091505b838210156200019d57858201830151818301840152908201906200017e565b600093810190920192909252949350505050565b60008060408385031215620001c557600080fd5b82516001600160401b0380821115620001dd57600080fd5b620001eb8683870162000102565b935060208501519150808211156200020257600080fd5b50620002118582860162000102565b9150509250929050565b600181811c908216806200023057607f821691505b6020821081036200025157634e487b7160e01b600052602260045260246000fd5b50919050565b601f821115620002a557600081815260208120601f850160051c81016020861015620002805750805b601f850160051c820191505b81811015620002a1578281556001016200028c565b5050505b505050565b81516001600160401b03811115620002c657620002c6620000ec565b620002de81620002d784546200021b565b8462000257565b602080601f831160018114620003165760008415620002fd5750858301515b600019600386901b1c1916600185901b178555620002a1565b600085815260208120601f198616915b82811015620003475788860151825594840194600190910190840162000326565b5085821015620003665787850151600019600388901b60f8161c191681555b5050505050600190811b01905550565b61129a80620003866000396000f3fe608060405234801561001057600080fd5b50600436106101735760003560e01c80636a292c03116100de5780639323397911610097578063a9059cbb11610071578063a9059cbb1461039d578063dd62ed3e146103b0578063f0f44260146103e9578063f2fde38b146103fc57600080fd5b8063932339791461033057806395d89b411461036c578063a8d52da31461037457600080fd5b80636a292c03146102c057806370a08231146102d3578063715018a6146102fc57806379cc6790146103045780638da5cb5b1461031757806392ab89bb1461032857600080fd5b806340c10f191161013057806340c10f191461021157806342966c6814610226578063587cde1e146102395780635c19a95c1461027a57806361d027b31461028d57806368e76346146102a057600080fd5b806306fdde0314610178578063095ea7b314610196578063169df064146101b957806318160ddd146101e757806323b872dd146101ef578063313ce56714610202575b600080fd5b61018061040f565b60405161018d9190611037565b60405180910390f35b6101a96101a43660046110a1565b6104a1565b604051901515815260200161018d565b6101d96101c73660046110cb565b60076020526000908152604090205481565b60405190815260200161018d565b6002546101d9565b6101a96101fd3660046110ed565b6104bb565b6040516012815260200161018d565b61022461021f3660046110a1565b6104df565b005b610224610234366004611129565b6104f5565b6102626102473660046110cb565b6006602052600090815260409020546001600160a01b031681565b6040516001600160a01b03909116815260200161018d565b6102246102883660046110cb565b610502565b600b54610262906001600160a01b031681565b6102b36102ae3660046110cb565b610688565b60405161018d9190611142565b6101d96102ce3660046110cb565b6106fe565b6101d96102e13660046110cb565b6001600160a01b031660009081526020819052604090205490565b61022461076a565b6102246103123660046110a1565b61077e565b6005546001600160a01b0316610262565b6102246107a4565b6101a961033e36600461118f565b6001600160a01b039182166000908152600a6020908152604080832093909416825291909152205460ff1690565b610180610875565b6101d96103823660046110cb565b6001600160a01b031660009081526007602052604090205490565b6101a96103ab3660046110a1565b610884565b6101d96103be36600461118f565b6001600160a01b03918216600090815260016020908152604080832093909416825291909152205490565b6102246103f73660046110cb565b610892565b61022461040a3660046110cb565b6108e6565b60606003805461041e906111c2565b80601f016020809104026020016040519081016040528092919081815260200182805461044a906111c2565b80156104975780601f1061046c57610100808354040283529160200191610497565b820191906000526020600020905b81548152906001019060200180831161047a57829003601f168201915b5050505050905090565b6000336104af818585610926565b60019150505b92915050565b6000336104c9858285610938565b6104d48585856109b7565b506001949350505050565b6104e7610a16565b6104f18282610a43565b5050565b6104ff3382610a79565b50565b336001600160a01b0382160361052b5760405163bbcec3ef60e01b815260040160405180910390fd5b336000908152600660205260409020546001600160a01b039081169082168103610568576040516380dfb77160e01b815260040160405180910390fd5b336000908152602081905260409020546001600160a01b038216156105bf576001600160a01b038216600090815260076020526040812080548392906105af908490611212565b909155506105bf90508233610aaf565b6001600160a01b0383161561062a5733600090815260066020908152604080832080546001600160a01b0319166001600160a01b0388169081179091558352600790915281208054839290610615908490611225565b9091555061062590508333610c69565b610648565b33600090815260066020526040902080546001600160a01b03191690555b6040516001600160a01b03808516919084169033907f3134e8a2e6d97e929a7e54011ea5485d7d196dd5f0ba4d4ef95803e8e3fc257f90600090a4505050565b6001600160a01b0381166000908152600860209081526040918290208054835181840281018401909452808452606093928301828280156106f257602002820191906000526020600020905b81546001600160a01b031681526001909101906020018083116106d4575b50505050509050919050565b6001600160a01b038181166000908152600660205260408120549091161561073c57506001600160a01b031660009081526007602052604090205490565b6001600160a01b03821660009081526007602090815260408083205491839052909120546104b59190611225565b610772610a16565b61077c6000610d0b565b565b600b546001600160a01b0316330361079a576104f18282610a79565b6104f18282610d5d565b336000908152600660205260409020546001600160a01b0316806107db57604051634e66b6bb60e11b815260040160405180910390fd5b33600090815260208181526040808320546001600160a01b038516845260079092528220805491928392610810908490611212565b9091555061082090508233610aaf565b3360008181526006602052604080822080546001600160a01b03191690555190916001600160a01b038516917f3134e8a2e6d97e929a7e54011ea5485d7d196dd5f0ba4d4ef95803e8e3fc257f908490a45050565b60606004805461041e906111c2565b6000336104af8185856109b7565b61089a610a16565b600b546001600160a01b0316156108c457604051636f98f01d60e11b815260040160405180910390fd5b600b80546001600160a01b0319166001600160a01b0392909216919091179055565b6108ee610a16565b6001600160a01b03811661091d57604051631e4fbdf760e01b8152600060048201526024015b60405180910390fd5b6104ff81610d0b565b6109338383836001610d72565b505050565b6001600160a01b038381166000908152600160209081526040808320938616835292905220546000198110156109b157818110156109a257604051637dc7a0d960e11b81526001600160a01b03841660048201526024810182905260448101839052606401610914565b6109b184848484036000610d72565b50505050565b6001600160a01b0383166109e157604051634b637e8f60e11b815260006004820152602401610914565b6001600160a01b038216610a0b5760405163ec442f0560e01b815260006004820152602401610914565b610933838383610e47565b6005546001600160a01b0316331461077c5760405163118cdaa760e01b8152336004820152602401610914565b6001600160a01b038216610a6d5760405163ec442f0560e01b815260006004820152602401610914565b6104f160008383610e47565b6001600160a01b038216610aa357604051634b637e8f60e11b815260006004820152602401610914565b6104f182600083610e47565b6001600160a01b038083166000908152600a602090815260408083209385168352929052205460ff16156104f1576001600160a01b0380831660008181526009602090815260408083209486168352938152838220549282526008905291822054909190610b1f90600190611212565b9050808214610bd8576001600160a01b0384166000908152600860205260408120805483908110610b5257610b52611238565b60009182526020808320909101546001600160a01b03888116845260089092526040909220805491909216925082919085908110610b9257610b92611238565b600091825260208083209190910180546001600160a01b0319166001600160a01b0394851617905587831682526009815260408083209490931682529290925290208290555b6001600160a01b0384166000908152600860205260409020805480610bff57610bff61124e565b60008281526020808220600019908401810180546001600160a01b03191690559092019092556001600160a01b03958616808352600982526040808420969097168084529582528683208390558252600a815285822094825293909352505020805460ff19169055565b6001600160a01b038083166000908152600a602090815260408083209385168352929052205460ff166104f1576001600160a01b038083166000818152600860209081526040808320805460098452828520968816808652968452828520819055600180820183559185528385200180546001600160a01b03191687179055938352600a825280832094835293905291909120805460ff191690911790555050565b600580546001600160a01b038381166001600160a01b0319831681179093556040519116919082907f8be0079c531659141344cd1fd0a4f28419497f9722a3daafe3b4186f6b6457e090600090a35050565b610d68823383610938565b6104f18282610a79565b6001600160a01b038416610d9c5760405163e602df0560e01b815260006004820152602401610914565b6001600160a01b038316610dc657604051634a1406b160e11b815260006004820152602401610914565b6001600160a01b03808516600090815260016020908152604080832093871683529290522082905580156109b157826001600160a01b0316846001600160a01b03167f8c5be1e5ebec7d5bd14f71427d1e84f3dd0314c0f7b2291e5b200ac8c7c3b92584604051610e3991815260200190565b60405180910390a350505050565b6001600160a01b03831615610ea7576001600160a01b03808416600090815260066020526040902054168015610ea5576001600160a01b03811660009081526007602052604081208054849290610e9f908490611212565b90915550505b505b6001600160a01b03821615610f07576001600160a01b03808316600090815260066020526040902054168015610f05576001600160a01b03811660009081526007602052604081208054849290610eff908490611225565b90915550505b505b6109338383836001600160a01b038316610f38578060026000828254610f2d9190611225565b90915550610faa9050565b6001600160a01b03831660009081526020819052604090205481811015610f8b5760405163391434e360e21b81526001600160a01b03851660048201526024810182905260448101839052606401610914565b6001600160a01b03841660009081526020819052604090209082900390555b6001600160a01b038216610fc657600280548290039055610fe5565b6001600160a01b03821660009081526020819052604090208054820190555b816001600160a01b0316836001600160a01b03167fddf252ad1be2c89b69c2b068fc378daa952ba7f163c4a11628f55a4df523b3ef8360405161102a91815260200190565b60405180910390a3505050565b600060208083528351808285015260005b8181101561106457858101830151858201604001528201611048565b506000604082860101526040601f19601f8301168501019250505092915050565b80356001600160a01b038116811461109c57600080fd5b919050565b600080604083850312156110b457600080fd5b6110bd83611085565b946020939093013593505050565b6000602082840312156110dd57600080fd5b6110e682611085565b9392505050565b60008060006060848603121561110257600080fd5b61110b84611085565b925061111960208501611085565b9150604084013590509250925092565b60006020828403121561113b57600080fd5b5035919050565b6020808252825182820181905260009190848201906040850190845b818110156111835783516001600160a01b03168352928401929184019160010161115e565b50909695505050505050565b600080604083850312156111a257600080fd5b6111ab83611085565b91506111b960208401611085565b90509250929050565b600181811c908216806111d657607f821691505b6020821081036111f657634e487b7160e01b600052602260045260246000fd5b50919050565b634e487b7160e01b600052601160045260246000fd5b818103818111156104b5576104b56111fc565b808201808211156104b5576104b56111fc565b634e487b7160e01b600052603260045260246000fd5b634e487b7160e01b600052603160045260246000fdfea26469706673582212209f51fbd938b5e3613e055829b0a92c09b86cb38ee3a5481de6659d16510dcd3064736f6c63430008140033","linkReferences":{}},"methodIdentifiers":{"allowance(address,address)":"dd62ed3e","approve(address,uint256)":"095ea7b3","balanceOf(address)":"70a08231","burn(uint256)":"42966c68","burnFrom(address,uint256)":"79cc6790","decimals()":"313ce567","delegate(address)":"5c19a95c","delegatedPower(address)":"169df064","delegates(address)":"587cde1e","getDelegatedPower(address)":"a8d52da3","getDelegators(address)":"68e76346","getEffectiveVotingPower(address)":"6a292c03","isDelegatorOf(address,address)":"93233979","mint(address,uint256)":"40c10f19","name()":"06fdde03","owner()":"8da5cb5b","renounceOwnership()":"715018a6","setTreasury(address)":"f0f44260","symbol()":"95d89b41","totalSupply()":"18160ddd","transfer(address,uint256)":"a9059cbb","transferFrom(address,address,uint256)":"23b872dd","transferOwnership(address)":"f2fde38b","treasury()":"61d027b3","undelegate()":"92ab89bb"},"id":16}