{"abi":[{"type":"constructor","inputs":[{"name":"token_","type":"address","internalType":"address"},{"name":"treasury_","type":"address","internalType":"address"}],"stateMutability":"nonpayable"},{"type":"function","name":"BASE_THRESHOLD","inputs":[],"outputs":[{"name":"","type":"uint256","internalType":"uint256"}],"stateMutability":"view"},{"type":"function","name":"CONCENTRATION_CAP","inputs":[],"outputs":[{"name":"","type":"uint256","internalType":"uint256"}],"stateMutability":"view"},{"type":"function","name":"CONCENTRATION_SCALAR","inputs":[],"outputs":[{"name":"","type":"uint256","internalType":"uint256"}],"stateMutability":"view"},{"type":"function","name":"FULL_REDEEM_WEIGHT","inputs":[],"outputs":[{"name":"","type":"uint256","internalType":"uint256"}],"stateMutability":"view"},{"type":"function","name":"IMPACT_MULTIPLIER","inputs":[],"outputs":[{"name":"","type":"uint256","internalType":"uint256"}],"stateMutability":"view"},{"type":"function","name":"MAX_TREASURY_IMPACT_BPS","inputs":[],"outputs":[{"name":"","type":"uint256","internalType":"uint256"}],"stateMutability":"view"},{"type":"function","name":"MIN_PROPOSER_STAKE_BPS","inputs":[],"outputs":[{"name":"","type":"uint256","internalType":"uint256"}],"stateMutability":"view"},{"type":"function","name":"NOISE_BASELINE","inputs":[],"outputs":[{"name":"","type":"uint256","internalType":"uint256"}],"stateMutability":"view"},{"type":"function","name":"PARTIAL_REDEEM_WEIGHT","inputs":[],"outputs":[{"name":"","type":"uint256","internalType":"uint256"}],"stateMutability":"view"},{"type":"function","name":"PROPOSAL_WINDOW","inputs":[],"outputs":[{"name":"","type":"uint256","internalType":"uint256"}],"stateMutability":"view"},{"type":"function","name":"PROPOSER_COOLDOWN","inputs":[],"outputs":[{"name":"","type":"uint256","internalType":"uint256"}],"stateMutability":"view"},{"type":"function","name":"REWORK_THRESHOLD_RATIO","inputs":[],"outputs":[{"name":"","type":"uint256","internalType":"uint256"}],"stateMutability":"view"},{"type":"function","name":"REWORK_WEIGHT","inputs":[],"outputs":[{"name":"","type":"uint256","internalType":"uint256"}],"stateMutability":"view"},{"type":"function","name":"STAKE_MULTIPLIER_BPS","inputs":[],"outputs":[{"name":"","type":"uint256","internalType":"uint256"}],"stateMutability":"view"},{"type":"function","name":"VETO_WEIGHT","inputs":[],"outputs":[{"name":"","type":"uint256","internalType":"uint256"}],"stateMutability":"view"},{"type":"function","name":"activeProposal","inputs":[],"outputs":[{"name":"","type":"uint256","internalType":"uint256"}],"stateMutability":"view"},{"type":"function","name":"calculateHHI","inputs":[],"outputs":[{"name":"","type":"uint256","internalType":"uint256"}],"stateMutability":"view"},{"type":"function","name":"calculateThreshold","inputs":[{"name":"proposalId","type":"uint256","internalType":"uint256"}],"outputs":[{"name":"","type":"uint256","internalType":"uint256"}],"stateMutability":"view"},{"type":"function","name":"canPropose","inputs":[{"name":"account","type":"address","internalType":"address"}],"outputs":[{"name":"","type":"bool","internalType":"bool"}],"stateMutability":"view"},{"type":"function","name":"delegateRework","inputs":[{"name":"proposalId","type":"uint256","internalType":"uint256"}],"outputs":[],"stateMutability":"nonpayable"},{"type":"function","name":"delegateVeto","inputs":[{"name":"proposalId","type":"uint256","internalType":"uint256"}],"outputs":[],"stateMutability":"nonpayable"},{"type":"function","name":"getDissentBreakdown","inputs":[{"name":"proposalId","type":"uint256","internalType":"uint256"}],"outputs":[{"name":"vetoWeight","type":"uint256","internalType":"uint256"},{"name":"reworkWeight","type":"uint256","internalType":"uint256"},{"name":"partialRedeemWeight","type":"uint256","internalType":"uint256"},{"name":"fullRedeemWeight","type":"uint256","internalType":"uint256"},{"name":"totalFailDissent","type":"uint256","internalType":"uint256"},{"name":"totalReworkSignal","type":"uint256","internalType":"uint256"}],"stateMutability":"view"},{"type":"function","name":"getProposal","inputs":[{"name":"proposalId","type":"uint256","internalType":"uint256"}],"outputs":[{"name":"proposer","type":"address","internalType":"address"},{"name":"treasuryImpact","type":"uint256","internalType":"uint256"},{"name":"recipient","type":"address","internalType":"address"},{"name":"stakeAmount","type":"uint256","internalType":"uint256"},{"name":"startTime","type":"uint256","internalType":"uint256"},{"name":"endTime","type":"uint256","internalType":"uint256"},{"name":"state","type":"uint8","internalType":"enum ICOGGovernor.ProposalState"},{"name":"reworkAttempts","type":"uint256","internalType":"uint256"},{"name":"description","type":"string","internalType":"string"}],"stateMutability":"view"},{"type":"function","name":"holderActions","inputs":[{"name":"","type":"uint256","internalType":"uint256"},{"name":"","type":"address","internalType":"address"}],"outputs":[{"name":"","type":"uint8","internalType":"enum ICOGGovernor.DissentAction"}],"stateMutability":"view"},{"type":"function","name":"lastProposalTime","inputs":[{"name":"","type":"address","internalType":"address"}],"outputs":[{"name":"","type":"uint256","internalType":"uint256"}],"stateMutability":"view"},{"type":"function","name":"owner","inputs":[],"outputs":[{"name":"","type":"address","internalType":"address"}],"stateMutability":"view"},{"type":"function","name":"proposalBalanceSnapshot","inputs":[{"name":"","type":"uint256","internalType":"uint256"},{"name":"","type":"address","internalType":"address"}],"outputs":[{"name":"","type":"uint256","internalType":"uint256"}],"stateMutability":"view"},{"type":"function","name":"proposalCount","inputs":[],"outputs":[{"name":"","type":"uint256","internalType":"uint256"}],"stateMutability":"view"},{"type":"function","name":"proposalHHI","inputs":[{"name":"","type":"uint256","internalType":"uint256"}],"outputs":[{"name":"","type":"uint256","internalType":"uint256"}],"stateMutability":"view"},{"type":"function","name":"proposalTotalSupply","inputs":[{"name":"","type":"uint256","internalType":"uint256"}],"outputs":[{"name":"","type":"uint256","internalType":"uint256"}],"stateMutability":"view"},{"type":"function","name":"propose","inputs":[{"name":"treasuryImpactBps","type":"uint256","internalType":"uint256"},{"name":"recipient","type":"address","internalType":"address"},{"name":"description","type":"string","internalType":"string"}],"outputs":[{"name":"proposalId","type":"uint256","internalType":"uint256"}],"stateMutability":"nonpayable"},{"type":"function","name":"recordRedemptionDissent","inputs":[{"name":"proposalId","type":"uint256","internalType":"uint256"},{"name":"holder","type":"address","internalType":"address"},{"name":"tokenAmount","type":"uint256","internalType":"uint256"},{"name":"isFullRedeem","type":"bool","internalType":"bool"}],"outputs":[],"stateMutability":"nonpayable"},{"type":"function","name":"renounceOwnership","inputs":[],"outputs":[],"stateMutability":"nonpayable"},{"type":"function","name":"requestRework","inputs":[{"name":"proposalId","type":"uint256","internalType":"uint256"}],"outputs":[],"stateMutability":"nonpayable"},{"type":"function","name":"resolve","inputs":[{"name":"proposalId","type":"uint256","internalType":"uint256"}],"outputs":[],"stateMutability":"nonpayable"},{"type":"function","name":"submitRework","inputs":[{"name":"proposalId","type":"uint256","internalType":"uint256"},{"name":"newTreasuryImpactBps","type":"uint256","internalType":"uint256"},{"name":"updatedDescription","type":"string","internalType":"string"}],"outputs":[],"stateMutability":"nonpayable"},{"type":"function","name":"token","inputs":[],"outputs":[{"name":"","type":"address","internalType":"contract ICOGToken"}],"stateMutability":"view"},{"type":"function","name":"transferOwnership","inputs":[{"name":"newOwner","type":"address","internalType":"address"}],"outputs":[],"stateMutability":"nonpayable"},{"type":"function","name":"treasury","inputs":[],"outputs":[{"name":"","type":"address","internalType":"contract ICOGTreasuryExtended"}],"stateMutability":"view"},{"type":"function","name":"veto","inputs":[{"name":"proposalId","type":"uint256","internalType":"uint256"}],"outputs":[],"stateMutability":"nonpayable"},{"type":"event","name":"DissentRecorded","inputs":[{"name":"proposalId","type":"uint256","indexed":true,"internalType":"uint256"},{"name":"holder","type":"address","indexed":true,"internalType":"address"},{"name":"action","type":"uint8","indexed":false,"internalType":"enum ICOGGovernor.DissentAction"},{"name":"weight","type":"uint256","indexed":false,"internalType":"uint256"}],"anonymous":false},{"type":"event","name":"OwnershipTransferred","inputs":[{"name":"previousOwner","type":"address","indexed":true,"internalType":"address"},{"name":"newOwner","type":"address","indexed":true,"internalType":"address"}],"anonymous":false},{"type":"event","name":"ProposalCreated","inputs":[{"name":"proposalId","type":"uint256","indexed":true,"internalType":"uint256"},{"name":"proposer","type":"address","indexed":true,"internalType":"address"},{"name":"treasuryImpact","type":"uint256","indexed":false,"internalType":"uint256"},{"name":"recipient","type":"address","indexed":false,"internalType":"address"},{"name":"description","type":"string","indexed":false,"internalType":"string"}],"anonymous":false},{"type":"event","name":"ProposalResolved","inputs":[{"name":"proposalId","type":"uint256","indexed":true,"internalType":"uint256"},{"name":"outcome","type":"uint8","indexed":false,"internalType":"enum ICOGGovernor.ProposalState"},{"name":"totalDissent","type":"uint256","indexed":false,"internalType":"uint256"},{"name":"threshold","type":"uint256","indexed":false,"internalType":"uint256"}],"anonymous":false},{"type":"event","name":"ProposalReworked","inputs":[{"name":"proposalId","type":"uint256","indexed":true,"internalType":"uint256"},{"name":"newTreasuryImpact","type":"uint256","indexed":false,"internalType":"uint256"},{"name":"updatedDescription","type":"string","indexed":false,"internalType":"string"}],"anonymous":false},{"type":"event","name":"ProposerSlashed","inputs":[{"name":"proposalId","type":"uint256","indexed":true,"internalType":"uint256"},{"name":"proposer","type":"address","indexed":true,"internalType":"address"},{"name":"stakeSlashed","type":"uint256","indexed":false,"internalType":"uint256"}],"anonymous":false},{"type":"error","name":"ActiveProposalExists","inputs":[]},{"type":"error","name":"AlreadyActed","inputs":[]},{"type":"error","name":"CannotRework","inputs":[]},{"type":"error","name":"CooldownNotElapsed","inputs":[]},{"type":"error","name":"InsufficientBalance","inputs":[]},{"type":"error","name":"InsufficientStake","inputs":[]},{"type":"error","name":"InvalidRecipient","inputs":[]},{"type":"error","name":"InvalidTreasuryImpact","inputs":[]},{"type":"error","name":"NoActiveProposal","inputs":[]},{"type":"error","name":"NoDelegatedPower","inputs":[]},{"type":"error","name":"NotProposer","inputs":[]},{"type":"error","name":"OnlyTreasury","inputs":[]},{"type":"error","name":"OwnableInvalidOwner","inputs":[{"name":"owner","type":"address","internalType":"address"}]},{"type":"error","name":"OwnableUnauthorizedAccount","inputs":[{"name":"account","type":"address","internalType":"address"}]},{"type":"error","name":"ProposalNotActive","inputs":[]},{"type":"error","name":"ProposalNotFound","inputs":[]},{"type":"error","name":"ProposalStillActive","inputs":[]},{"type":"error","name":"ReentrancyGuardReentrantCall","inputs":[]},{"type":"error","name":"ZeroAddress","inputs":[]}],"bytecode":{"object":"0x60c06040523480156200001157600080fd5b5060405162002f8638038062002f8683398101604081905262000034916200014d565b60017f9b779b17422d0df92223018b32b4d1fa46e071723d6817e2486d003becc55f005533806200007f57604051631e4fbdf760e01b81526000600482015260240160405180910390fd5b6200008a81620000e0565b506001600160a01b0382161580620000a957506001600160a01b038116155b15620000c85760405163d92e233d60e01b815260040160405180910390fd5b6001600160a01b039182166080521660a05262000185565b600080546001600160a01b038381166001600160a01b0319831681178455604051919092169283917f8be0079c531659141344cd1fd0a4f28419497f9722a3daafe3b4186f6b6457e09190a35050565b80516001600160a01b03811681146200014857600080fd5b919050565b600080604083850312156200016157600080fd5b6200016c8362000130565b91506200017c6020840162000130565b90509250929050565b60805160a051612d4f62000237600039600081816103c90152818161115e015281816121fa01528181612291015261235501526000818161054a0152818161064a0152818161085d0152818161091d01528181610a5d01528181610b5801528181610c04015281816113f2015281816115310152818161182f0152818161199701528181611ad601528181611d430152818161204d01528181612130015281816123ea01526124830152612d4f6000f3fe608060405234801561001057600080fd5b50600436106102475760003560e01c806380922e171161013b578063c7f758a8116100b8578063ef4a434d1161007c578063ef4a434d14610518578063f2fde38b14610521578063fa2ebdc514610534578063fadfcd2c1461053d578063fc0c546a1461054557600080fd5b8063c7f758a8146104d6578063d0655cb0146104fe578063d419cf4814610507578063da35c6641461050f578063ebce122d146104cd57600080fd5b80639a752f3d116100ff5780639a752f3d146104a4578063a231621c146104ad578063b9344e78146104cd578063c320020c146102c3578063c5711d1f146104cd57600080fd5b806380922e171461044457806382d60d501461044d5780638349851c146104605780638da5cb5b146104735780638dcd4b291461048457600080fd5b80634f896d4f116101c957806361d027b31161018d57806361d027b3146103c4578063651926d2146104035780636e4108a5146104165780636ed02d2414610429578063715018a61461043c57600080fd5b80634f896d4f1461033e57806351f4a0cd1461033557806358d8aa4b1461035157806359a5db8b146103915780635b7ad578146103a457600080fd5b806330a84f511161021057806330a84f51146102cb578063331ce1ce146102d457806342b4632e146102ff578063476b13e4146103225780634c7f446f1461033557600080fd5b8062a184e51461024c57806302cb638214610269578063088d0039146102a45780631d28dec7146102ae5780632346243d146102c3575b600080fd5b61025662093a8081565b6040519081526020015b60405180910390f35b610297610277366004612645565b600560209081526000928352604080842090915290825290205460ff1681565b604051610260919061269f565b6102566212750081565b6102c16102bc3660046126b3565b61056c565b005b610256606481565b6102566104b081565b6102566102e2366004612645565b600760209081526000928352604080842090915290825290205481565b61031261030d3660046126cc565b610804565b6040519015158152602001610260565b610256610330366004612739565b610993565b6102566103e881565b6102c161034c3660046126b3565b610dbf565b61036461035f3660046126b3565b611026565b604080519687526020870195909552938501929092526060840152608083015260a082015260c001610260565b61025661039f3660046126b3565b61108a565b6102566103b23660046126cc565b60046020526000908152604090205481565b6103eb7f000000000000000000000000000000000000000000000000000000000000000081565b6040516001600160a01b039091168152602001610260565b6102c16104113660046127a3565b611153565b6102c16104243660046126b3565b61138c565b6102c16104373660046127ed565b61170f565b6102c161191d565b6102566107d081565b6102c161045b3660046126b3565b611931565b6102c161046e3660046126b3565b611c91565b6000546001600160a01b03166103eb565b6102566104923660046126b3565b60086020526000908152604090205481565b61025661271081565b6102566104bb3660046126b3565b60066020526000908152604090205481565b61025661138881565b6104e96104e43660046126b3565b611ed8565b6040516102609998979695949392919061285c565b610256619c4081565b600254610256565b61025660015481565b610256614e2081565b6102c161052f3660046126cc565b612008565b61025661177081565b610256612048565b6103eb7f000000000000000000000000000000000000000000000000000000000000000081565b6105746120e7565b801580610582575060015481115b156105a05760405163635e873760e01b815260040160405180910390fd5b600081815260036020526040812090600782015460ff1660038111156105c8576105c8612675565b146105e657604051637becc13f60e01b815260040160405180910390fd5b600082815260056020908152604080832033845290915281205460ff16600481111561061457610614612675565b146106325760405163f0be0d0560e01b815260040160405180910390fd5b6040516370a0823160e01b81523360048201526000907f00000000000000000000000000000000000000000000000000000000000000006001600160a01b0316906370a0823190602401602060405180830381865afa158015610699573d6000803e3d6000fd5b505050506040513d601f19601f820116820180604052508101906106bd91906128e3565b9050806000036106e057604051631e9acf1760e31b815260040160405180910390fd5b6000838152600760209081526040808320338452909152812054900361071d57600083815260076020908152604080832033845290915290208190555b6000838152600760209081526040808320338452825280832054868452600690925282205490919061075183612710612912565b61075b9190612929565b9050600061271061076c8184612912565b6107769190612929565b60008781526005602090815260408083203384529091528120805460ff19166001179055600a8701805492935083929091906107b390849061294b565b909155505060405133908790600080516020612cda833981519152906107dd90600190869061295e565b60405180910390a350505050506108016001600080516020612cfa83398151915255565b50565b600060025460001461081857506000919050565b6001600160a01b038216600090815260046020526040902054801580159061084b5750610848621275008261294b565b42105b156108595750600092915050565b60007f00000000000000000000000000000000000000000000000000000000000000006001600160a01b03166318160ddd6040518163ffffffff1660e01b8152600401602060405180830381865afa1580156108b9573d6000803e3d6000fd5b505050506040513d601f19601f820116820180604052508101906108dd91906128e3565b905060006127106108ef606484612912565b6108f99190612929565b6040516370a0823160e01b81526001600160a01b03878116600483015291925082917f000000000000000000000000000000000000000000000000000000000000000016906370a0823190602401602060405180830381865afa158015610964573d6000803e3d6000fd5b505050506040513d601f19601f8201168201806040525081019061098891906128e3565b101595945050505050565b600061099d6120e7565b600254156109be5760405163792c310960e11b815260040160405180910390fd5b8415806109cc575061138885115b156109ea576040516361aee8eb60e11b815260040160405180910390fd5b6001600160a01b038416610a1157604051634e46966960e11b815260040160405180910390fd5b336000908152600460205260409020548015801590610a3b5750610a38621275008261294b565b42105b15610a5957604051635115ba2f60e11b815260040160405180910390fd5b60007f00000000000000000000000000000000000000000000000000000000000000006001600160a01b03166318160ddd6040518163ffffffff1660e01b8152600401602060405180830381865afa158015610ab9573d6000803e3d6000fd5b505050506040513d601f19601f82011682018060405250810190610add91906128e3565b90506000612710610aef606484612912565b610af99190612929565b905060006305f5e1006103e8610b0f8b86612912565b610b199190612912565b610b239190612929565b90506000818311610b345781610b36565b825b6040516370a0823160e01b815233600482015290915081906001600160a01b037f000000000000000000000000000000000000000000000000000000000000000016906370a0823190602401602060405180830381865afa158015610b9f573d6000803e3d6000fd5b505050506040513d601f19601f82011682018060405250810190610bc391906128e3565b1015610be2576040516378de4a6960e11b815260040160405180910390fd5b6040516323b872dd60e01b8152336004820152306024820152604481018290527f00000000000000000000000000000000000000000000000000000000000000006001600160a01b0316906323b872dd906064016020604051808303816000875af1158015610c55573d6000803e3d6000fd5b505050506040513d601f19601f82011682018060405250810190610c799190612979565b5060018054906000610c8a83612996565b909155505060018054600281815560008281526003602081905260409091208381559384018054336001600160a01b0319918216179091559184018e9055830180549091166001600160a01b038d16179055600482018390554260058301819055909750610cfc9062093a809061294b565b600682015560078101805460ff1916905560098101610d1c898b83612a4d565b506000878152600660205260409020859055610d36612048565b60008881526008602090815260408083209390935533808352600490915290829020429055905188907ff66a3e7ba538f9082141dc0fd245147ed00fefdd2645aeea8dbd004c6f1a828890610d92908f908f908f908f90612b37565b60405180910390a3505050505050610db76001600080516020612cfa83398151915255565b949350505050565b610dc76120e7565b600081815260036020526040812090600782015460ff166003811115610def57610def612675565b14610e0d57604051637becc13f60e01b815260040160405180910390fd5b8060060154421015610e3257604051630e6c500560e31b815260040160405180910390fd5b6000610e3d8361108a565b90506000612710610e5061177084612912565b610e5a9190612929565b9050600083600d015484600c015485600a0154610e77919061294b565b610e81919061294b565b90506000600285600a0154610e969190612929565b85600b0154610ea5919061294b565b9050838210610f085760078501805460ff19166003179055610ec686612103565b857f9ee7afa69341f1cf8ba511cc63a4788433f56556bb80719fbca9f754a65a0ad260038487604051610efb93929190612b6c565b60405180910390a2610fe4565b828110158015610f2b5750600285600a0154610f249190612929565b85600b0154115b8015610f3957506008850154155b15610f855760078501805460ff1916600290811790915560405187917f9ee7afa69341f1cf8ba511cc63a4788433f56556bb80719fbca9f754a65a0ad291610efb919086908990612b6c565b60078501805460ff19166001179055610f9d866121df565b610fa6866123b7565b857f9ee7afa69341f1cf8ba511cc63a4788433f56556bb80719fbca9f754a65a0ad260018487604051610fdb93929190612b6c565b60405180910390a25b6002600786015460ff166003811115610fff57610fff612675565b1461100a5760006002555b50505050506108016001600080516020612cfa83398151915255565b6000818152600360205260408120600a810154600b820154600c830154600d840154929491939092919081908361105d868961294b565b611067919061294b565b9250611074600288612929565b61107e908761294b565b91505091939550919395565b600081815260036020526040812060028101546104b0908390612710906110b4906107d090612912565b6110be9190612929565b600086815260086020526040812054919250606482111561110f576127106113886110ea606485612b8b565b6110f49190612912565b6110fe9190612929565b90506103e881111561110f57506103e85b606460008261111e868861294b565b611128919061294b565b9050818111156111435761113c8282612b8b565b9050611147565b5060005b98975050505050505050565b336001600160a01b037f0000000000000000000000000000000000000000000000000000000000000000161461119c57604051632298d39d60e11b815260040160405180910390fd5b600084815260036020526040812090600782015460ff1660038111156111c4576111c4612675565b146111e257604051637becc13f60e01b815260040160405180910390fd5b60008581526005602090815260408083206001600160a01b038816845290915281205460ff16600481111561121957611219612675565b146112375760405163f0be0d0560e01b815260040160405180910390fd5b60008581526006602052604081205461125285612710612912565b61125c9190612929565b9050600083156112cd5760008781526005602090815260408083206001600160a01b038a1684529091529020805460ff191660041790556127106112a2619c4084612912565b6112ac9190612929565b90508083600d0160008282546112c2919061294b565b9091555061132f9050565b60008781526005602090815260408083206001600160a01b038a1684529091529020805460ff19166003179055612710611309614e2084612912565b6113139190612929565b90508083600c016000828254611329919061294b565b90915550505b60008781526005602090815260408083206001600160a01b038a1680855292529182902054915190918991600080516020612cda8339815191529161137b9160ff90911690869061295e565b60405180910390a350505050505050565b6113946120e7565b600081815260036020526040812090600782015460ff1660038111156113bc576113bc612675565b146113da57604051637becc13f60e01b815260040160405180910390fd5b60405163a8d52da360e01b81523360048201526000907f00000000000000000000000000000000000000000000000000000000000000006001600160a01b03169063a8d52da390602401602060405180830381865afa158015611441573d6000803e3d6000fd5b505050506040513d601f19601f8201168201806040525081019061146591906128e3565b90508060000361148857604051636fde272160e01b815260040160405180910390fd5b60006114933361247c565b90506000805b82518110156116d95760008382815181106114b6576114b6612b9e565b60200260200101519050600060048111156114d3576114d3612675565b60008881526005602090815260408083206001600160a01b038616845290915290205460ff16600481111561150a5761150a612675565b036116c6576040516370a0823160e01b81526001600160a01b0382811660048301526000917f0000000000000000000000000000000000000000000000000000000000000000909116906370a0823190602401602060405180830381865afa15801561157a573d6000803e3d6000fd5b505050506040513d601f19601f8201168201806040525081019061159e91906128e3565b60008981526007602090815260408083206001600160a01b0387168452909152812054919250036115ef5760008881526007602090815260408083206001600160a01b038616845290915290208190555b60008881526007602090815260408083206001600160a01b03861684528252808320548b8452600690925282205490919061162c83612710612912565b6116369190612929565b9050600061271061164961138884612912565b6116539190612929565b60008c81526005602090815260408083206001600160a01b038a1684529091529020805460ff19166002179055905061168c818861294b565b9650846001600160a01b03168b600080516020612cda8339815191526002846040516116b992919061295e565b60405180910390a3505050505b50806116d181612996565b915050611499565b508084600b0160008282546116ee919061294b565b90915550506001600080516020612cfa833981519152555061080192505050565b6117176120e7565b60008481526003602052604090206002600782015460ff16600381111561174057611740612675565b1461175e5760405163d4f38f7960e01b815260040160405180910390fd5b60018101546001600160a01b0316331461178b57604051637d1b73b960e01b815260040160405180910390fd5b83158061179b5750806002015484115b156117b9576040516361aee8eb60e11b815260040160405180910390fd5b6000600a8201819055600b8201819055600c8201819055600d82015560028101849055600981016117eb838583612a4d565b506008810180549060006117fe83612996565b909155505060078101805460ff1916905542600582018190556118259062093a809061294b565b81600601819055507f00000000000000000000000000000000000000000000000000000000000000006001600160a01b03166318160ddd6040518163ffffffff1660e01b8152600401602060405180830381865afa15801561188b573d6000803e3d6000fd5b505050506040513d601f19601f820116820180604052508101906118af91906128e3565b60008681526006602052604090819020919091555185907ff7e4f060e2549a6ec36cfa26a225fb0eff9ff09f314d38d65f2adc4ab498112c906118f790879087908790612bb4565b60405180910390a2506119176001600080516020612cfa83398151915255565b50505050565b611925612583565b61192f60006125b0565b565b6119396120e7565b600081815260036020526040812090600782015460ff16600381111561196157611961612675565b1461197f57604051637becc13f60e01b815260040160405180910390fd5b60405163a8d52da360e01b81523360048201526000907f00000000000000000000000000000000000000000000000000000000000000006001600160a01b03169063a8d52da390602401602060405180830381865afa1580156119e6573d6000803e3d6000fd5b505050506040513d601f19601f82011682018060405250810190611a0a91906128e3565b905080600003611a2d57604051636fde272160e01b815260040160405180910390fd5b6000611a383361247c565b90506000805b8251811015611c7c576000838281518110611a5b57611a5b612b9e565b6020026020010151905060006004811115611a7857611a78612675565b60008881526005602090815260408083206001600160a01b038616845290915290205460ff166004811115611aaf57611aaf612675565b03611c69576040516370a0823160e01b81526001600160a01b0382811660048301526000917f0000000000000000000000000000000000000000000000000000000000000000909116906370a0823190602401602060405180830381865afa158015611b1f573d6000803e3d6000fd5b505050506040513d601f19601f82011682018060405250810190611b4391906128e3565b60008981526007602090815260408083206001600160a01b038716845290915281205491925003611b945760008881526007602090815260408083206001600160a01b038616845290915290208190555b60008881526007602090815260408083206001600160a01b03861684528252808320548b84526006909252822054909190611bd183612710612912565b611bdb9190612929565b90506000612710611bec8184612912565b611bf69190612929565b60008c81526005602090815260408083206001600160a01b038a1684529091529020805460ff191660011790559050611c2f818861294b565b9650846001600160a01b03168b600080516020612cda833981519152600184604051611c5c92919061295e565b60405180910390a3505050505b5080611c7481612996565b915050611a3e565b508084600a0160008282546116ee919061294b565b611c996120e7565b600081815260036020526040812090600782015460ff166003811115611cc157611cc1612675565b14611cdf57604051637becc13f60e01b815260040160405180910390fd5b600082815260056020908152604080832033845290915281205460ff166004811115611d0d57611d0d612675565b14611d2b5760405163f0be0d0560e01b815260040160405180910390fd5b6040516370a0823160e01b81523360048201526000907f00000000000000000000000000000000000000000000000000000000000000006001600160a01b0316906370a0823190602401602060405180830381865afa158015611d92573d6000803e3d6000fd5b505050506040513d601f19601f82011682018060405250810190611db691906128e3565b905080600003611dd957604051631e9acf1760e31b815260040160405180910390fd5b60008381526007602090815260408083203384529091528120549003611e1657600083815260076020908152604080832033845290915290208190555b60008381526007602090815260408083203384528252808320548684526006909252822054909190611e4a83612710612912565b611e549190612929565b90506000612710611e6761138884612912565b611e719190612929565b60008781526005602090815260408083203384529091528120805460ff19166002179055600b870180549293508392909190611eae90849061294b565b909155505060405133908790600080516020612cda833981519152906107dd90600290869061295e565b60008060008060008060008060606000600360008c815260200190815260200160002090508060010160009054906101000a90046001600160a01b031681600201548260030160009054906101000a90046001600160a01b03168360040154846005015485600601548660070160009054906101000a900460ff16876008015488600901808054611f68906129c5565b80601f0160208091040260200160405190810160405280929190818152602001828054611f94906129c5565b8015611fe15780601f10611fb657610100808354040283529160200191611fe1565b820191906000526020600020905b815481529060010190602001808311611fc457829003601f168201915b50505050509050995099509950995099509950995099509950509193959799909294969850565b612010612583565b6001600160a01b03811661203f57604051631e4fbdf760e01b8152600060048201526024015b60405180910390fd5b610801816125b0565b6000807f00000000000000000000000000000000000000000000000000000000000000006001600160a01b03166318160ddd6040518163ffffffff1660e01b8152600401602060405180830381865afa1580156120a9573d6000803e3d6000fd5b505050506040513d601f19601f820116820180604052508101906120cd91906128e3565b9050806000036120df57600091505090565b606491505090565b6120ef612600565b6002600080516020612cfa83398151915255565b600081815260036020526040908190206004808201549251630852cd8d60e31b81529081018390529091907f00000000000000000000000000000000000000000000000000000000000000006001600160a01b0316906342966c6890602401600060405180830381600087803b15801561217c57600080fd5b505af1158015612190573d6000803e3d6000fd5b5050505060018201546040518281526001600160a01b039091169084907f9093383966930dd6becb45379ac1ee9e4bfefb150c40ca54b40b1d62eea2fff19060200160405180910390a3505050565b600060036000838152602001908152602001600020905060007f00000000000000000000000000000000000000000000000000000000000000006001600160a01b031663e9cbd8226040518163ffffffff1660e01b8152600401602060405180830381865afa158015612256573d6000803e3d6000fd5b505050506040513d601f19601f8201168201806040525081019061227a9190612be7565b6040516370a0823160e01b81526001600160a01b037f00000000000000000000000000000000000000000000000000000000000000008116600483015291909116906370a0823190602401602060405180830381865afa1580156122e2573d6000803e3d6000fd5b505050506040513d601f19601f8201168201806040525081019061230691906128e3565b9050600061271083600201548361231d9190612912565b6123279190612929565b6003840154604051633ba91c6560e21b81526001600160a01b039182166004820152602481018390529192507f0000000000000000000000000000000000000000000000000000000000000000169063eea4719490604401600060405180830381600087803b15801561239957600080fd5b505af11580156123ad573d6000803e3d6000fd5b5050505050505050565b600081815260036020526040908190206001810154600480830154935163a9059cbb60e01b815292936001600160a01b037f000000000000000000000000000000000000000000000000000000000000000081169463a9059cbb946124349492169291016001600160a01b03929092168252602082015260400190565b6020604051808303816000875af1158015612453573d6000803e3d6000fd5b505050506040513d601f19601f820116820180604052508101906124779190612979565b505050565b60606000807f00000000000000000000000000000000000000000000000000000000000000006001600160a01b0316846040516024016124cb91906001600160a01b0391909116815260200190565b60408051601f198184030181529181526020820180516001600160e01b0316633473b1a360e11b179052516125009190612c04565b600060405180830381855afa9150503d806000811461253b576040519150601f19603f3d011682016040523d82523d6000602084013e612540565b606091505b5091509150818015612553575060008151115b1561256c5780806020019051810190610db79190612c20565b505060408051600081526020810190915292915050565b6000546001600160a01b0316331461192f5760405163118cdaa760e01b8152336004820152602401612036565b600080546001600160a01b038381166001600160a01b0319831681178455604051919092169283917f8be0079c531659141344cd1fd0a4f28419497f9722a3daafe3b4186f6b6457e09190a35050565b600080516020612cfa8339815191525460020361192f57604051633ee5aeb560e01b815260040160405180910390fd5b6001600160a01b038116811461080157600080fd5b6000806040838503121561265857600080fd5b82359150602083013561266a81612630565b809150509250929050565b634e487b7160e01b600052602160045260246000fd5b6005811061269b5761269b612675565b9052565b602081016126ad828461268b565b92915050565b6000602082840312156126c557600080fd5b5035919050565b6000602082840312156126de57600080fd5b81356126e981612630565b9392505050565b60008083601f84011261270257600080fd5b50813567ffffffffffffffff81111561271a57600080fd5b60208301915083602082850101111561273257600080fd5b9250929050565b6000806000806060858703121561274f57600080fd5b84359350602085013561276181612630565b9250604085013567ffffffffffffffff81111561277d57600080fd5b612789878288016126f0565b95989497509550505050565b801515811461080157600080fd5b600080600080608085870312156127b957600080fd5b8435935060208501356127cb81612630565b92506040850135915060608501356127e281612795565b939692955090935050565b6000806000806060858703121561280357600080fd5b8435935060208501359250604085013567ffffffffffffffff81111561277d57600080fd5b6004811061269b5761269b612675565b60005b8381101561285357818101518382015260200161283b565b50506000910152565b6001600160a01b038a81168252602082018a905288166040820152606081018790526080810186905260a08101859052600061012061289e60c0840187612828565b8460e0840152806101008401528351808285015261014091506128c78183860160208801612838565b601f01601f1916929092019091019a9950505050505050505050565b6000602082840312156128f557600080fd5b5051919050565b634e487b7160e01b600052601160045260246000fd5b80820281158282048414176126ad576126ad6128fc565b60008261294657634e487b7160e01b600052601260045260246000fd5b500490565b808201808211156126ad576126ad6128fc565b6040810161296c828561268b565b8260208301529392505050565b60006020828403121561298b57600080fd5b81516126e981612795565b6000600182016129a8576129a86128fc565b5060010190565b634e487b7160e01b600052604160045260246000fd5b600181811c908216806129d957607f821691505b6020821081036129f957634e487b7160e01b600052602260045260246000fd5b50919050565b601f82111561247757600081815260208120601f850160051c81016020861015612a265750805b601f850160051c820191505b81811015612a4557828155600101612a32565b505050505050565b67ffffffffffffffff831115612a6557612a656129af565b612a7983612a7383546129c5565b836129ff565b6000601f841160018114612aad5760008515612a955750838201355b600019600387901b1c1916600186901b178355612b07565b600083815260209020601f19861690835b82811015612ade5786850135825560209485019460019092019101612abe565b5086821015612afb5760001960f88860031b161c19848701351681555b505060018560011b0183555b5050505050565b81835281816020850137506000828201602090810191909152601f909101601f19169091010190565b8481526001600160a01b0384166020820152606060408201819052600090612b629083018486612b0e565b9695505050505050565b60608101612b7a8286612828565b602082019390935260400152919050565b818103818111156126ad576126ad6128fc565b634e487b7160e01b600052603260045260246000fd5b838152604060208201526000612bce604083018486612b0e565b95945050505050565b8051612be281612630565b919050565b600060208284031215612bf957600080fd5b81516126e981612630565b60008251612c16818460208701612838565b9190910192915050565b60006020808385031215612c3357600080fd5b825167ffffffffffffffff80821115612c4b57600080fd5b818501915085601f830112612c5f57600080fd5b815181811115612c7157612c716129af565b8060051b604051601f19603f83011681018181108582111715612c9657612c966129af565b604052918252848201925083810185019188831115612cb457600080fd5b938501935b8285101561114757612cca85612bd7565b84529385019392850192612cb956fe205345b06c61e8e2eaab799b49fb3d783c8f9484c86d4b86e3e6f3c8bea797f39b779b17422d0df92223018b32b4d1fa46e071723d6817e2486d003becc55f00a2646970667358221220da2d547b4ad97bd9558666fbe7dca90ef7fcca20d486280db0ebae15d10fbfdc64736f6c63430008140033","linkReferences":{}},"methodIdentifiers":{"BASE_THRESHOLD()":"30a84f51","CONCENTRATION_CAP()":"4c7f446f","CONCENTRATION_SCALAR()":"c5711d1f","FULL_REDEEM_WEIGHT()":"d0655cb0","IMPACT_MULTIPLIER()":"80922e17","MAX_TREASURY_IMPACT_BPS()":"ebce122d","MIN_PROPOSER_STAKE_BPS()":"2346243d","NOISE_BASELINE()":"c320020c","PARTIAL_REDEEM_WEIGHT()":"ef4a434d","PROPOSAL_WINDOW()":"00a184e5","PROPOSER_COOLDOWN()":"088d0039","REWORK_THRESHOLD_RATIO()":"fa2ebdc5","REWORK_WEIGHT()":"b9344e78","STAKE_MULTIPLIER_BPS()":"51f4a0cd","VETO_WEIGHT()":"9a752f3d","activeProposal()":"d419cf48","calculateHHI()":"fadfcd2c","calculateThreshold(uint256)":"59a5db8b","canPropose(address)":"42b4632e","delegateRework(uint256)":"6e4108a5","delegateVeto(uint256)":"82d60d50","getDissentBreakdown(uint256)":"58d8aa4b","getProposal(uint256)":"c7f758a8","holderActions(uint256,address)":"02cb6382","lastProposalTime(address)":"5b7ad578","owner()":"8da5cb5b","proposalBalanceSnapshot(uint256,address)":"331ce1ce","proposalCount()":"da35c664","proposalHHI(uint256)":"8dcd4b29","proposalTotalSupply(uint256)":"a231621c","propose(uint256,address,string)":"476b13e4","recordRedemptionDissent(uint256,address,uint256,bool)":"651926d2","renounceOwnership()":"715018a6","requestRework(uint256)":"8349851c","resolve(uint256)":"4f896d4f","submitRework(uint256,uint256,string)":"6ed02d24","token()":"fc0c546a","transferOwnership(address)":"f2fde38b","treasury()":"61d027b3","veto(uint256)":"1d28dec7"},"id":34}