{"abi":[{"type":"constructor","inputs":[{"name":"stablecoin_","type":"address","internalType":"address"},{"name":"token_","type":"address","internalType":"address"}],"stateMutability":"nonpayable"},{"type":"function","name":"accumulatedFees","inputs":[],"outputs":[{"name":"","type":"uint256","internalType":"uint256"}],"stateMutability":"view"},{"type":"function","name":"activeProposal","inputs":[],"outputs":[{"name":"","type":"bool","internalType":"bool"}],"stateMutability":"view"},{"type":"function","name":"cogToken","inputs":[],"outputs":[{"name":"","type":"address","internalType":"contract ICOGToken"}],"stateMutability":"view"},{"type":"function","name":"deposit","inputs":[{"name":"amount","type":"uint256","internalType":"uint256"}],"outputs":[],"stateMutability":"nonpayable"},{"type":"function","name":"executeTreasuryTransfer","inputs":[{"name":"recipient","type":"address","internalType":"address"},{"name":"amount","type":"uint256","internalType":"uint256"}],"outputs":[],"stateMutability":"nonpayable"},{"type":"function","name":"governor","inputs":[],"outputs":[{"name":"","type":"address","internalType":"contract ICOGGovernor"}],"stateMutability":"view"},{"type":"function","name":"nav","inputs":[],"outputs":[{"name":"","type":"uint256","internalType":"uint256"}],"stateMutability":"view"},{"type":"function","name":"owner","inputs":[],"outputs":[{"name":"","type":"address","internalType":"address"}],"stateMutability":"view"},{"type":"function","name":"redeem","inputs":[{"name":"tokenAmount","type":"uint256","internalType":"uint256"}],"outputs":[],"stateMutability":"nonpayable"},{"type":"function","name":"redeemAll","inputs":[],"outputs":[],"stateMutability":"nonpayable"},{"type":"function","name":"redemptionHaircut","inputs":[],"outputs":[{"name":"","type":"uint256","internalType":"uint256"}],"stateMutability":"view"},{"type":"function","name":"renounceOwnership","inputs":[],"outputs":[],"stateMutability":"nonpayable"},{"type":"function","name":"setGovernor","inputs":[{"name":"governor_","type":"address","internalType":"address"}],"outputs":[],"stateMutability":"nonpayable"},{"type":"function","name":"setRedemptionHaircut","inputs":[{"name":"newHaircut","type":"uint256","internalType":"uint256"}],"outputs":[],"stateMutability":"nonpayable"},{"type":"function","name":"stablecoin","inputs":[],"outputs":[{"name":"","type":"address","internalType":"address"}],"stateMutability":"view"},{"type":"function","name":"stablecoinToken","inputs":[],"outputs":[{"name":"","type":"address","internalType":"contract IERC20"}],"stateMutability":"view"},{"type":"function","name":"token","inputs":[],"outputs":[{"name":"","type":"address","internalType":"address"}],"stateMutability":"view"},{"type":"function","name":"transferOwnership","inputs":[{"name":"newOwner","type":"address","internalType":"address"}],"outputs":[],"stateMutability":"nonpayable"},{"type":"function","name":"withdrawFees","inputs":[{"name":"to","type":"address","internalType":"address"}],"outputs":[],"stateMutability":"nonpayable"},{"type":"event","name":"Deposit","inputs":[{"name":"from","type":"address","indexed":true,"internalType":"address"},{"name":"amount","type":"uint256","indexed":false,"internalType":"uint256"}],"anonymous":false},{"type":"event","name":"OwnershipTransferred","inputs":[{"name":"previousOwner","type":"address","indexed":true,"internalType":"address"},{"name":"newOwner","type":"address","indexed":true,"internalType":"address"}],"anonymous":false},{"type":"event","name":"Redemption","inputs":[{"name":"holder","type":"address","indexed":true,"internalType":"address"},{"name":"tokensRedeemed","type":"uint256","indexed":false,"internalType":"uint256"},{"name":"stablecoinsOut","type":"uint256","indexed":false,"internalType":"uint256"},{"name":"redemptionType","type":"uint8","indexed":false,"internalType":"enum ICOGTreasury.RedemptionType"}],"anonymous":false},{"type":"error","name":"GovernorAlreadySet","inputs":[]},{"type":"error","name":"InsufficientBalance","inputs":[]},{"type":"error","name":"OnlyGovernor","inputs":[]},{"type":"error","name":"OwnableInvalidOwner","inputs":[{"name":"owner","type":"address","internalType":"address"}]},{"type":"error","name":"OwnableUnauthorizedAccount","inputs":[{"name":"account","type":"address","internalType":"address"}]},{"type":"error","name":"ReentrancyGuardReentrantCall","inputs":[]},{"type":"error","name":"SafeERC20FailedOperation","inputs":[{"name":"token","type":"address","internalType":"address"}]},{"type":"error","name":"ZeroAddress","inputs":[]},{"type":"error","name":"ZeroAmount","inputs":[]}],"bytecode":{"object":"0x60c060405260c860025534801561001557600080fd5b506040516200117e3803806200117e83398101604081905261003691610148565b60017f9b779b17422d0df92223018b32b4d1fa46e071723d6817e2486d003becc55f0055338061008057604051631e4fbdf760e01b81526000600482015260240160405180910390fd5b610089816100dc565b506001600160a01b03821615806100a757506001600160a01b038116155b156100c55760405163d92e233d60e01b815260040160405180910390fd5b6001600160a01b039182166080521660a05261017b565b600080546001600160a01b038381166001600160a01b0319831681178455604051919092169283917f8be0079c531659141344cd1fd0a4f28419497f9722a3daafe3b4186f6b6457e09190a35050565b80516001600160a01b038116811461014357600080fd5b919050565b6000806040838503121561015b57600080fd5b6101648361012c565b91506101726020840161012c565b90509250929050565b60805160a051610f90620001ee60003960008181610244015281816102b401528181610368015281816104d6015281816107780152610a5a0152600081816101c4015281816102680152818161031d0152818161047101528181610587015281816108970152610ac30152610f906000f3fe608060405234801561001057600080fd5b50600436106101215760003560e01c8063b6b55f25116100ad578063dbcddce811610071578063dbcddce81461023f578063e9cbd82214610266578063eea471941461028c578063f2fde38b1461029f578063fc0c546a146102b257600080fd5b8063b6b55f25146101e6578063c1590cd7146101f9578063c42cf53514610201578063d419cf4814610214578063db006a751461022c57600080fd5b8063587f5ed7116100f4578063587f5ed71461018a578063715018a6146101935780638caa888f1461019b5780638da5cb5b146101ae5780639b2c52f2146101bf57600080fd5b80630c340a2414610126578063164e68de146101565780632f4350c21461016b5780634e95c40214610173575b600080fd5b600154610139906001600160a01b031681565b6040516001600160a01b0390911681526020015b60405180910390f35b610169610164366004610e07565b6102d8565b005b610169610348565b61017c60025481565b60405190815260200161014d565b61017c60035481565b610169610424565b6101696101a9366004610e29565b610436565b6000546001600160a01b0316610139565b6101397f000000000000000000000000000000000000000000000000000000000000000081565b6101696101f4366004610e29565b610443565b61017c6104d1565b61016961020f366004610e07565b61062f565b61021c6106aa565b604051901515815260200161014d565b61016961023a366004610e29565b610737565b6101397f000000000000000000000000000000000000000000000000000000000000000081565b7f0000000000000000000000000000000000000000000000000000000000000000610139565b61016961029a366004610e42565b610838565b6101696102ad366004610e07565b6108be565b7f0000000000000000000000000000000000000000000000000000000000000000610139565b6102e06108fe565b6001600160a01b0381166103075760405163d92e233d60e01b815260040160405180910390fd5b6003805460009091556103446001600160a01b037f000000000000000000000000000000000000000000000000000000000000000016838361092b565b5050565b610350610965565b6040516370a0823160e01b81523360048201526000907f00000000000000000000000000000000000000000000000000000000000000006001600160a01b0316906370a0823190602401602060405180830381865afa1580156103b7573d6000803e3d6000fd5b505050506040513d601f19601f820116820180604052508101906103db9190610e6c565b9050806000036103fe57604051631f2a200560e01b815260040160405180910390fd5b61040a33826001610981565b506104226001600080516020610f3b83398151915255565b565b61042c6108fe565b6104226000610c57565b61043e6108fe565b600255565b8060000361046457604051631f2a200560e01b815260040160405180910390fd5b6104996001600160a01b037f000000000000000000000000000000000000000000000000000000000000000016333084610ca7565b60405181815233907fe1fffcc4923d04b559f4d29a8bfc6cda04eb5b0d3c460751c2402c5c5cc9109c9060200160405180910390a250565b6000807f00000000000000000000000000000000000000000000000000000000000000006001600160a01b03166318160ddd6040518163ffffffff1660e01b8152600401602060405180830381865afa158015610532573d6000803e3d6000fd5b505050506040513d601f19601f820116820180604052508101906105569190610e6c565b90508060000361056f57670de0b6b3a764000091505090565b6040516370a0823160e01b81523060048201526000907f00000000000000000000000000000000000000000000000000000000000000006001600160a01b0316906370a0823190602401602060405180830381865afa1580156105d6573d6000803e3d6000fd5b505050506040513d601f19601f820116820180604052508101906105fa9190610e6c565b90508161060f82670de0b6b3a7640000610e9b565b61061e9064e8d4a51000610e9b565b6106289190610eb8565b9250505090565b6106376108fe565b6001546001600160a01b03161561066157604051630f029c6360e41b815260040160405180910390fd5b6001600160a01b0381166106885760405163d92e233d60e01b815260040160405180910390fd5b600180546001600160a01b0319166001600160a01b0392909216919091179055565b6001546000906001600160a01b03166106c35750600090565b60015460408051631a8339e960e31b815290516000926001600160a01b03169163d419cf489160048083019260209291908290030181865afa15801561070d573d6000803e3d6000fd5b505050506040513d601f19601f820116820180604052508101906107319190610e6c565b11905090565b61073f610965565b8060000361076057604051631f2a200560e01b815260040160405180910390fd5b6040516370a0823160e01b81523360048201526000907f00000000000000000000000000000000000000000000000000000000000000006001600160a01b0316906370a0823190602401602060405180830381865afa1580156107c7573d6000803e3d6000fd5b505050506040513d601f19601f820116820180604052508101906107eb9190610e6c565b90508082111561080e57604051631e9acf1760e31b815260040160405180910390fd5b81811461081c338483610981565b50506108356001600080516020610f3b83398151915255565b50565b6001546001600160a01b031633146108635760405163070545c960e51b815260040160405180910390fd5b6001600160a01b03821661088a5760405163d92e233d60e01b815260040160405180910390fd5b6103446001600160a01b037f000000000000000000000000000000000000000000000000000000000000000016838361092b565b6108c66108fe565b6001600160a01b0381166108f557604051631e4fbdf760e01b8152600060048201526024015b60405180910390fd5b61083581610c57565b6000546001600160a01b031633146104225760405163118cdaa760e01b81523360048201526024016108ec565b6109388383836001610ce3565b61096057604051635274afe760e01b81526001600160a01b03841660048201526024016108ec565b505050565b61096d610d49565b6002600080516020610f3b83398151915255565b600061098b6104d1565b905060006109976106aa565b6109a25760006109a6565b6002545b905060006e01ed09bead87c0378d8e64000000006109c683612710610eda565b6109d08588610e9b565b6109da9190610e9b565b6109e49190610eb8565b90508115610a345760006c0c9f2c9cd04674edea40000000610a068588610e9b565b610a109190610eb8565b9050610a1c8282610eda565b60036000828254610a2d9190610eed565b9091555050505b60405163079cc67960e41b81526001600160a01b038781166004830152602482018790527f000000000000000000000000000000000000000000000000000000000000000016906379cc679090604401600060405180830381600087803b158015610a9e57600080fd5b505af1158015610ab2573d6000803e3d6000fd5b50610aec9250506001600160a01b037f0000000000000000000000000000000000000000000000000000000000000000169050878361092b565b6001546000906001600160a01b0316610b06576000610b7d565b600160009054906101000a90046001600160a01b03166001600160a01b031663d419cf486040518163ffffffff1660e01b8152600401602060405180830381865afa158015610b59573d6000803e3d6000fd5b505050506040513d601f19601f82011682018060405250810190610b7d9190610e6c565b90508015610bfb5760015460405163328c936960e11b8152600481018390526001600160a01b0389811660248301526044820189905287151560648301529091169063651926d290608401600060405180830381600087803b158015610be257600080fd5b505af1158015610bf6573d6000803e3d6000fd5b505050505b866001600160a01b03167f699a0c083adde04a2978bfbbc3c88d3a3309bef7cb08dcbea347c835d007793d878488610c34576001610c37565b60005b604051610c4693929190610f00565b60405180910390a250505050505050565b600080546001600160a01b038381166001600160a01b0319831681178455604051919092169283917f8be0079c531659141344cd1fd0a4f28419497f9722a3daafe3b4186f6b6457e09190a35050565b610cb5848484846001610d79565b610cdd57604051635274afe760e01b81526001600160a01b03851660048201526024016108ec565b50505050565b60405163a9059cbb60e01b60008181526001600160a01b038616600452602485905291602083604481808b5af192506001600051148316610d3d578383151615610d30573d6000823e3d81fd5b6000873b113d1516831692505b60405250949350505050565b600080516020610f3b8339815191525460020361042257604051633ee5aeb560e01b815260040160405180910390fd5b6040516323b872dd60e01b60008181526001600160a01b038781166004528616602452604485905291602083606481808c5af192506001600051148316610dd9578383151615610dcc573d6000823e3d81fd5b6000883b113d1516831692505b60405250600060605295945050505050565b80356001600160a01b0381168114610e0257600080fd5b919050565b600060208284031215610e1957600080fd5b610e2282610deb565b9392505050565b600060208284031215610e3b57600080fd5b5035919050565b60008060408385031215610e5557600080fd5b610e5e83610deb565b946020939093013593505050565b600060208284031215610e7e57600080fd5b5051919050565b634e487b7160e01b600052601160045260246000fd5b8082028115828204841417610eb257610eb2610e85565b92915050565b600082610ed557634e487b7160e01b600052601260045260246000fd5b500490565b81810381811115610eb257610eb2610e85565b80820180821115610eb257610eb2610e85565b838152602081018390526060810160028310610f2c57634e487b7160e01b600052602160045260246000fd5b82604083015294935050505056fe9b779b17422d0df92223018b32b4d1fa46e071723d6817e2486d003becc55f00a26469706673582212201a509316301da81175be019937f80be6f81414c0ef5fe32a84bb6b8a5373721564736f6c63430008140033","linkReferences":{}},"methodIdentifiers":{"accumulatedFees()":"587f5ed7","activeProposal()":"d419cf48","cogToken()":"dbcddce8","deposit(uint256)":"b6b55f25","executeTreasuryTransfer(address,uint256)":"eea47194","governor()":"0c340a24","nav()":"c1590cd7","owner()":"8da5cb5b","redeem(uint256)":"db006a75","redeemAll()":"2f4350c2","redemptionHaircut()":"4e95c402","renounceOwnership()":"715018a6","setGovernor(address)":"c42cf535","setRedemptionHaircut(uint256)":"8caa888f","stablecoin()":"e9cbd822","stablecoinToken()":"9b2c52f2","token()":"fc0c546a","transferOwnership(address)":"f2fde38b","withdrawFees(address)":"164e68de"},"id":17}